:020000040800F2
:1000000020090020390600084104000843040008C4
:10001000470400084B0400084F04000800000000DB
:100020000000000000000000000000005304000871
:100030005504000800000000570400085904000897
:10004000530600085306000853060008530600082C
:10005000530600085306000853060008530600081C
:10006000530600085306000853060008530600080C
:1000700053060008530600085306000853060008FC
:1000800053060008530600085306000853060008EC
:1000900053060008530600085306000871030008C1
:1000A00053060008530600085306000853060008CC
:1000B00053060008E7370008AD03000853060008A0
:1000C00053060008530600085306000853060008AC
:1000D0005306000859260008530600085306000876
:1000E000530600085306000853060008530600088C
:1000F000530600085306000853060008530600087C
:10010000530600085306000853060008530600086B
:10011000530600085306000853060008530600085B
:10012000530600085306000853060008530600084B
:1001300000F002F800F050F80AA090E8000C8244A9
:100140008344AAF10107DA4501D100F045F8AFF286
:10015000090EBAE80F0013F0010F18BFFB1A43F0A5
:100160000103184790950000B0950000103A24BF95
:1001700078C878C1FAD8520724BF30C830C144BF0C
:1001800004680C607047000000230024002500264E
:10019000103A28BF78C1FBD8520728BF30C148BFEA
:1001A0000B607047662909F0CC80642905F00E8049
:1001B000002070471FB505F0D3FB0400002000218C
:1001C00007F050FE401C60600020002107F034FE64
:1001D000E0601FBD10B510BD05F00AFD1146FFF728
:1001E000E9FF00F009F805F083FF03B4FFF7F2FF21
:1001F00003BC02F0D7F900001FB500BF00BF02F03A
:100200004DF902F0E7FD00206F4908604FF0C8008B
:1002100002F080F901206D49C1F8880100206C4985
:1002200008604FF0C80002F075F9012068490860C5
:100230004FF00000A1F1040108604FF0C80002F087
:1002400069F90120634908604FF000006249C1F874
:10025000A8014FF0C80002F05DF901205E49C1F825
:10026000A80102F099F94FF4165002F0A9F902F032
:1002700039FA02F0BFFF03F0DBF80DE057480068E1
:1002800008B9012000E000205449086054A004F09F
:1002900091FF642002F03EF903F03BF80128EDD015
:1002A00053A004F087FF072003F06AF88246514606
:1002B000272003F052F8FF21E22003F04EF8092135
:1002C00040F2E73003F024F947214FF6FF7003F0C6
:1002D00047FA02F05FFD02F0E9FD02F048FA04F08F
:1002E0004EFE41F61F41312003F08BFA00204349B6
:1002F000087001204249087039E04048007898B100
:1003000003F0E4FA0020304908604FF4FA7002F07C
:1003100001F901202D49C1F8880100203949086000
:10032000394908603949086035480078F8B104F067
:10033000D7FE03F0B4FE3648006808F0D1FB04464F
:100340000D463448006808F0CBFB06460F4632499C
:10035000086808F0C5FB804642460B462FA0CDE951
:100360000067CDE9024504F025FF03F088FCC4E7EF
:1003700010B5202000F062FA78B1202000F06FFA6A
:1003800000212C4801F0A8FB01202B4908702B48C4
:10039000006820F02000294908600E48006808B96C
:1003A000012000E000200B49086010BD10B50121BC
:1003B000204801F05AFE08B103F071FE01211D48EA
:1003C00001F064FE10BD00008881224200802242BC
:1003D000B0012242AC01224200002242A801224286
:1003E0004E5246204552524F5221210D0A00000024
:1003F0004E5246206F6B6B21210D0A005D000020DC
:100400005E000020700000206400002068000020D2
:1004100074000020800000203C020020252E316660
:10042000202020252E3166202020252E31660D0A21
:1004300000000000000800405C00002000040140B3
:10044000704700BFFEE700BFFEE700BFFEE700BF4A
:10045000FEE7704770477047704700000CB50020FA
:10046000019000906B48006840F480306949086052
:1004700000BF6848006800F4003000900198401CFC
:100480000190009818B90198B0F5A06FF1D16148BA
:10049000006810F4003F02D00120009001E000202D
:1004A00000900098012842D15B48006840F010009D
:1004B000594908600846006820F0030008600846B3
:1004C000006840F0020008605248406851494860A6
:1004D0000846406848600846406840F480604860CC
:1004E0000846406820F47C1048600846406840F4A4
:1004F000E81048600846006840F08070086000BF5F
:100500004448006810F0007FFAD04248406820F06C
:100510000300404948600846406840F002004860D7
:1005200000BF3C48406800F00C000828F9D10CBD21
:1005300010B5FFF793FF10BD10B53648006840F0C6
:100540000100344908600846406834490840314990
:10055000486008460068324908402E49086008464D
:10056000006820F4802008600846406820F4FE00FF
:1005700048604FF41F008860FFF7DAFF4FF000601B
:100580002849086010BD10B5002100200022214B31
:100590005B6803F00C0121B1042906D0082928D199
:1005A00007E0214B214C236027E01F4B1F4C2360A9
:1005B00023E0184B5B6803F47010164B5B6803F480
:1005C0008032022303EB904022B9194B4343174C6E
:1005D00023600DE00F4B5B6813F4003F04D0144B15
:1005E0004343124C236003E00F4B43430F4C236003
:1005F00003E00D4B0D4C236000BF00BF054B5B6853
:10060000C3F303130B4CE15C084B1B68CB40074C56
:10061000236010BD00100240002002400000FFF8DF
:10062000FFFFF6FE08ED00E000127A000000002057
:1006300000093D00040000200948804709480047A0
:10064000FEE7FEE7FEE7FEE7FEE7FEE7FEE7FEE782
:10065000FEE7FEE704480549054A064B70470000DF
:10066000390500083101000820030020200900207E
:10067000200500202005002031490143314A116046
:10068000704770B5002100230F22C4780CB32D4CA5
:10069000246804F4E064C4F5E064210AC1F10403B1
:1006A000CA40447804FA03F18478144021430901D4
:1006B000254C0678A155047804F01F050124AC40B0
:1006C00005786D114FF0E02606EB8505C5F8004171
:1006D00009E0047804F01F050124AC401B4D0678A6
:1006E000761145F8264070BD194A0A400243154B61
:1006F0001B1F1A60704739B1124A121D126802435B
:10070000104B1B1D1A6006E00E4A121D1268824330
:100710000C4B1B1D1A607047042808D14FF0E021D4
:10072000096941F004014FF0E022116107E04FF048
:10073000E021096921F004014FF0E02211617047C6
:100740000000FA050CED00E000E400E080E100E0CC
:1007500080FFFF1F002044490860091D0860091D33
:100760000860091D086041483F491431086070471E
:1007700000213D498279002A3AD00A46126803686E
:100780009A430B461A600A1D126803689A430B1DB0
:100790001A60027911440A6803681A430A60324AEF
:1007A0000832126803689A432F4B08331A601A1DE7
:1007B000126803689A432C4B0C331A604279102A52
:1007C0000ED11A1F126803681A43274B08331A60A8
:1007D0001A1D126803681A43234B0C331A600DE08C
:1007E0002149427911440A6803681A430A6005E006
:1007F000027911440A6803689A430A60704700212D
:10080000016001710C21417100218171704716490D
:10081000103109680143144A1032116070470146D3
:100820000020114A143212680A4201D0012000E06F
:10083000002070470C4914310860704701460020C1
:100840000022094B1B6803EA0102074B14331B68A3
:100850000B4202D00AB1012000E00020704702499B
:10086000143108607047000000040140FFFF0F00D2
:1008700010B50446CA48844208D10121042000F082
:1008800027FB0021042000F023FB46E0C5488442FA
:1008900008D10121082000F01BFB0021082000F0F6
:1008A00017FB3AE0C048844208D10121102000F033
:1008B0000FFB0021102000F00BFB2EE0BB48844210
:1008C00008D10121202000F003FB0021202000F0AE
:1008D000FFFA22E0B648844208D10121402000F00E
:1008E000F7FA0021402000F0F3FA16E0B148844204
:1008F00008D10121802000F0EBFA0021802000F0D7
:10090000E7FA0AE0AC48844207D10121801500F0E3
:10091000DFFA0021A01500F0DBFA10BD10B50121AF
:10092000084600F0D5FA0021012000F0D1FA10BDF0
:100930002DE9F04102460025002600200023002476
:10094000002791F803C00CF00F0591F803C01CF0CC
:10095000100F03D091F802C04CEA050591F800C0D1
:10096000BCF1000F31D0146800202BE04FF0010CD7
:100970000CFA00F3B1F800C00CEA03069E4220D145
:1009800083004FF00F0C0CFA03F7BC4305FA03FC8D
:100990004CEA040491F803C0BCF1280F06D14FF0D3
:1009A000010C0CFA00FCC2F814C00AE091F803C074
:1009B000BCF1480F05D14FF0010C0CFA00FCC2F855
:1009C00010C0401C0828D1D31460B1F800C0BCF19D
:1009D000FF0F34DD546800202EE000F1080C4FF0CA
:1009E000010808FA0CF3B1F800C00CEA03069E42B5
:1009F00021D183004FF00F0C0CFA03F7BC4305FA2A
:100A000003FC4CEA040491F803C0BCF1280F05D1A3
:100A100000F1080C08FA0CF8C2F8148091F803C031
:100A2000BCF1480F07D100F1080C4FF0010808FA9B
:100A30000CF8C2F81080401C0828CED35460BDE8E2
:100A4000F0814FF6FF710180022181700421C17095
:100A500070470246002093680B4201D0012000E05D
:100A6000002070470146886880B270470246002027
:100A7000D3680B4201D0012000E0002070470146FE
:100A8000C86880B2704701617047416170470AB120
:100A9000016100E041617047C16070474FF48032EE
:100AA0000A4382618161826182698269704702467C
:100AB0000020424B18684FF68073184040EA02103D
:100AC00008433E4B186070473D49C8617047F0B518
:100AD0000A46002300240021002500F00046B6F15C
:100AE000004F02D1354EF16901E0344E7168C0F318
:100AF000034583B200F44016B6F5401F08D121F03B
:100B000070612E4E766826F070662C4F7E6012E083
:100B100000F48016B6F5801F06D1032606FA05F408
:100B2000A14341F0706106E0460D360103FA06F676
:100B3000B14341F0706122B1460D360103FA06F669
:100B4000314300F00046B6F1004F02D11B4EF16177
:100B500001E01A4E7160F0BD30B500228B071C0F0A
:100B60000F2303FA04F2154B08338C1053F824308A
:100B70009343124C08348D1044F8253023468C10D2
:100B800053F824308C07240F00FA04F423430B4C51
:100B900008348D1044F8253030BD0A49086070478C
:100BA00000080140000C0140001001400014014009
:100BB00000180140001C01400020014000000140DD
:100BC00000002042DC002042DD48006840F00100C7
:100BD000DB49086008464068DA490840D84948605F
:100BE00008460068D8490840D549086008460068AA
:100BF00020F4802008600846406820F4FE00486029
:100C00004FF41F0088607047CD49096821F4803196
:100C1000CB4A11601146096821F480211160B0F5BA
:100C2000803F03D0B0F5802F0ED106E0C44909689B
:100C300041F48031C24A116007E0C149096841F4BA
:100C4000A021BF4A116000E000BF00BF704710B58F
:100C500001460022002300204A11012A02D1B84C8B
:100C6000236806E0022A02D1B54C236A01E0B44CA5
:100C7000636A01F01F02012494401C4201D001204C
:100C800000E0002010BD38B50020009000240025B1
:100C900000BF3120FFF7DBFF05460098401C0090A5
:100CA0000098B0F5A06F01D0002DF2D03120FFF7F1
:100CB000CEFF08B1012400E00024204638BD0146E3
:100CC00000209F4A106820F0F80040EAC100106040
:100CD00070479E490860704702460020984B58684C
:100CE00020F47C1042EA01031843954B586070478A
:100CF00096490866704701460020914A506820F0E6
:100D000003000843506070478D48406800F00C00B5
:100D10007047014600208A4A506820F0F0000843DE
:100D20005060704701460020854A506820F4E0601A
:100D300008435060704701460020814A506820F403
:100D4000605040EAC1005060704729B17C4A527A35
:100D500002437B4B5A7204E0794A527A8243784BC1
:100D60005A7270477A490860704701460020744AF9
:100D7000506820F440400843506070470021754A95
:100D800011706F4A82F82010012802D0042808D17F
:100D900003E001216F4A117004E005216D4A1170D2
:100DA00000E000BF00BF70476B49086070476449AE
:100DB000096A0143624A1162704767494439086011
:100DC000704730B500210022002400235C4D6D687F
:100DD00005F00C0121B1042905D0082923D105E033
:100DE0005E4D056022E05D4D05601FE0544D6D686D
:100DF00005F47012524D6D6805F48034022505EB40
:100E000092421CB9564D554305600BE04C4D6D6840
:100E100015F4003F03D0524D5543056002E04F4D9D
:100E20005543056002E04D4D056000BF00BF444DD5
:100E30006D6805F0F00109094A4D6B5C0568DD40FD
:100E400045603F4D6D6805F4E061090A454D6B5CF6
:100E50004568DD4085603A4D6D6805F46051C90A0A
:100E6000404D6B5C4568DD40C560354D6D6805F4EF
:100E70004041890B3C4D6B5CC568B5FBF3F50561E2
:100E800030BD29B12E4A526902432D4B5A6104E00C
:100E90002B4A526982432A4B5A61704729B1284A2A
:100EA00092690243264B9A6104E0254A9269824383
:100EB000234B9A61704729B1214AD2690243204BE2
:100EC000DA6104E01E4AD26982431D4BDA61704741
:100ED00029B11B4AD2680243194BDA6004E0184A70
:100EE000D2688243164BDA60704729B1144A1269FE
:100EF0000243134B1A6104E0114A12698243104BFA
:100F00001A61704714494039086070470F49C86436
:100F100070470B49C87170470948406A40F08070BB
:100F200007494862704701460020054A92680A4214
:100F300001D0012000E0002070470149887270470D
:100F4000001002400000FFF8FFFFF6FE00004242E2
:100F5000D8004242201002408004424200127A002F
:100F600000093D00140000202400002010B50446B4
:100F7000BE48844208D101218014FFF7A9FF002157
:100F8000A014FFF7A5FF16E0B948844208D101215B
:100F90000014FFF7AAFF00212014FFF7A6FF0AE0C4
:100FA000B448844207D10121C013FFF79EFF0021FE
:100FB000E013FFF79AFF10BD10B50022028802F47B
:100FC00041520B884C8823438C882343CC8823438D
:100FD0000C8923434C8923438C892343CC892343A5
:100FE0001A430280838B4FF2FF74234083830B8A62
:100FF000038210BD2DE9F04F85B005460C464FF039
:10100000000902274FF000084FF0010B0026B246FE
:10101000A88B4FF240010840A88302202884B5F82D
:101020001C90A068022801D100BF38E0A08810B948
:101030004FF0010B01E04FF0020B8D48854200D1CB
:1010400000E000BF6846FFF7BCFEDDF800A0E088C6
:10105000B0F5007F0AD14FEA1A2000EB8000400073
:10106000A168B0FBF1F0401D86B20BE04FEA4B10D7
:10107000BAFBF0F000EB80004000A168B0FBF1F09B
:10108000401D86B20A20B6FBF0F606F00108A6EB7A
:101090000800C0F34F074FF6FF7000EA0828022F40
:1010A00001DBFF2F02DD02274FF00008E08840EA55
:1010B000080038432884A088A18908436188084330
:1010C0002188084340F4006040EA0909A5F81C9013
:1010D00005B0BDE8F08F0021018041808180C18092
:1010E000018141818181C1810721018270470021F5
:1010F000018041808180C180022181600021818145
:10110000704721B1028842F04002028004E0028868
:101110004FF6BF731A400280704721B1828B42F4B0
:101120008062828304E0828B4FF6FF331A40828311
:10113000704730B5002400230C110125A540ABB247
:101140001AB185881D43858002E085889D4385808E
:1011500030BD1AB183880B43838002E083888B43C0
:101160008380704781817047014688897047A1F567
:101170007E42FF3A04D0028842F48072028004E08A
:1011800002884FF6FF631A400280704721B18288BF
:1011900042F00402828004E082884FF6FB731A401A
:1011A0008280704702884FF2FF731A4002800288E3
:1011B0000A4302807047018841F4805101807047E2
:1011C00021B1028842F40052028004E002884DF608
:1011D000FF731A400280704702460020012901D0A7
:1011E000108B00E0908A70470146088A7047B1F57D
:1011F000804F04D1028842F48042028004E00288D9
:101200004BF6FF731A400280704702460020138994
:101210000B4201D0012000E000207047CA43028148
:101220007047F0B50246002000240023002501F09D
:101230000F070126BE40B4B20B1101269E40B3B287
:10124000968806EA03051689264202D00DB10120D0
:1012500000E00020F0BD10B5002201F00F040123D2
:10126000A3409AB2D343038110BD00000030014077
:1012700000380040003C004010B50446FE4884425F
:1012800008D10121C014FFF723FE0021E014FFF76D
:101290001FFEC4E0B4F1804F08D101210846FFF7DA
:1012A00024FE00210120FFF720FEB8E0F34884422D
:1012B00008D101210220FFF718FE00210220FFF7CC
:1012C00014FEACE0EE48844208D101210420FFF76F
:1012D0000CFE00210420FFF708FEA0E0E94884424C
:1012E00008D101210820FFF700FE00210820FFF7A8
:1012F000FCFD94E0E448844208D101211020FFF76E
:10130000F4FD00211020FFF7F0FD88E0DF48844263
:1013100008D101212020FFF7E8FD00212020FFF760
:10132000E4FD7CE0DA48844208D101214014FFF753
:10133000CFFD00216014FFF7CBFD70E0D54884425B
:1013400009D10121C804FFF7C3FD00214FF400209B
:10135000FFF7BEFD63E0D048844209D101210805B2
:10136000FFF7B6FD00214FF48010FFF7B1FD56E006
:10137000CA48844209D101214805FFF7A9FD00218F
:101380004FF40010FFF7A4FD49E0C548844208D19E
:1013900001214020FFF7A9FD00214020FFF7A5FD16
:1013A0003DE0C048844208D101218020FFF79DFD27
:1013B00000218020FFF799FD31E0BB48844208D12D
:1013C00001218015FFF791FD0021A015FFF78DFD8C
:1013D00025E0B648844209D101210804FFF778FDD1
:1013E00000214FF48030FFF773FD18E0B0488442CD
:1013F00009D101214804FFF76BFD00214FF40030B3
:10140000FFF766FD0BE0AB48844208D10121880458
:10141000FFF75EFD00214FF48020FFF759FD10BD5E
:1014200000220288944B98420ED0994B98420BD0E0
:10143000B0F1804F08D0914B984205D0904B984224
:1014400002D0904B984204D14FF68F731A404B88CC
:101450001A438D4B984207D08C4B984204D04FF6DC
:10146000FF431A40CB881A4302808B8883850B8800
:101470000385814B98420BD0854B984208D08B4B0B
:10148000984205D08A4B984202D08A4B984201D1AB
:101490000B7A038601238382704770B500240022F3
:1014A0000023058C4FF6FE7635400584028C838838
:1014B000048B4FF68F752C40B51E2C400D882C43A5
:1014C000751E2A400D892A434D882A436A4DA84239
:1014D0000BD06F4DA84208D0744DA84205D0744D72
:1014E000A84202D0734DA84213D14FF6F7752A4097
:1014F0004D892A434FF6FB752A408D882A434FF6C3
:10150000FF652B404FF6FF552B408D892B43CD892E
:101510002B4383800483CD888586028470BD70B59B
:10152000002400220023058C4FF6EF763540058419
:10153000028C8388048B48F6FF752C404FF6FF45DC
:101540002C400D884FF6FF7606EA05252C434FF612
:10155000DF752A400D8906EA05152A434D8806EAFB
:1015600005152A43444DA84202D0494DA8421DD139
:101570004FF67F752A404D894FF6FF7606EA05152E
:101580002A434FF6BF752A408D8806EA05152A437F
:101590004FF6FF352B404FF2FF752B408D8906EA41
:1015A00085052B43CD8906EA85052B43838004837B
:1015B000CD880587028470BD70B500240022002309
:1015C000058C4FF6FF6635400584028C8388848B3A
:1015D0004FF68F752C404FF6FC752C400D882C4330
:1015E0004FF6FF552A400D894FF6FF7606EA05258E
:1015F0002A434D8806EA05252A431F4DA84202D0FA
:10160000234DA8421DD14FF2FF752A404D894FF658
:10161000FF7606EA05252A434FF6FF352A408D88D6
:1016200006EA05252A434EF6FF752B404DF6FF7559
:101630002B408D8906EA05152B43CD8906EA051551
:101640002B4383808483CD888587028470BD70B5E9
:10165000002200230024058C4EF6FF7635400584D9
:10166000038C8488828B48F6FF752A404FF6FF452D
:101670002A400D8820E00000002C014000040040BA
:1016800000080040000C0040001000400014004022
:1016900000340140004C0140005001400054014022
:1016A00000180040001C00400020004000400140A5
:1016B00000440140004801404FF6FF7606EA052548
:1016C0002A434DF6FF752B400D8906EA05352B435D
:1016D0004D8806EA05352B43FA4DA84202D0FA4D53
:1016E000A84208D14BF6FF752C408D894FF6FF7646
:1016F00006EA85152C4384808283CD88A0F840506B
:10170000038470BD828B4FF2FF331A408283828B39
:101710004FF6FF7303EA01231A4382837047F0B543
:101720000C461546002200210026078C4EF6FF7C51
:1017300007EA0C070784828B018C4FF6FF7707EAD4
:10174000043640F6FF473A404FF6FF7707EA052791
:101750003A434FF6FF7707EA03373A43D94FB84287
:101760000ED0D94FB8420BD0B0F1804F08D0D74F30
:10177000B84205D0D64FB84202D0D64FB84206D1B3
:101780004DF6FF77394046F48057394305E047F678
:10179000FF57394044F48057394382830184F0BDB8
:1017A000828B4FF6F3731A408283828B0A438283C3
:1017B0007047F0B50C461546002200210026078C24
:1017C0004FF6FF6C07EA0C070784828B018C4FF6FB
:1017D000FF7707EA04264FF60C773A404FF6FF777B
:1017E00007EA03172F433A43B64FB8420ED0B64F1D
:1017F000B8420BD0B0F1804F08D0B44FB84205D0FA
:10180000B34FB84202D0B34FB84206D14FF6FF579C
:10181000394046F48077394305E04FF2FF573940AD
:1018200044F48077394382830184F0BD028B4FF208
:10183000FF331A400283028B4FF6FF7303EA012342
:101840001A4302837047F0B50C461546002200216A
:101850000026078C4FF6EF7C07EA0C070784028B03
:10186000018C4FF6FF7707EA041640F6FF473A402F
:101870004FF6FF7707EA03373A434FF6FF7707EA59
:1018800005273A438F4FB8420ED08F4FB8420BD046
:10189000B0F1804F08D08D4FB84205D08C4FB84280
:1018A00002D08C4FB84206D14FF6DF77394046F070
:1018B0001007394305E04FF65F77394044F01007D1
:1018C000394302830184F0BD028B4FF6F3731A4053
:1018D0000283028B0A4302837047F0B50C4615461B
:1018E00000220021068C4FF6FE773E400684028BD4
:1018F000018C4FF60C7632407E1C06EA03162E430E
:101900003243704EB0420ED06F4EB0420BD0B0F1A9
:10191000804F08D06D4EB04205D06D4EB04202D01F
:101920006C4EB04206D14FF6FD76314044F00106D0
:10193000314305E04FF6F576314044F0010631437E
:1019400002830184F0BD70B505460C465D488542B2
:101950000ED05D4885420BD0B5F1804F08D05B4872
:10196000854205D05A48854202D05A48854200D166
:1019700000E000BF208850B92389A28861882846EA
:10198000FFF7ABFFE1882846FFF79EFF25E02088A0
:1019900004280AD12389A28861882846FFF753FFCB
:1019A000E1882846FFF742FF17E0208808280AD17F
:1019B0002389A28861882846FFF7FBFEE188284634
:1019C000FFF7EEFE09E02389A28861882846FFF729
:1019D000A6FEE1882846FFF795FE70BD2DE9F0418F
:1019E00005460C4600260127608808B9022600E05B
:1019F0000026A088012801D1022700E001272088C5
:101A0000A0B92389A28861882846FFF766FFE1888C
:101A10002846FFF759FF23893A4631462846FFF703
:101A200012FFE1882846FFF701FF13E02389A2880F
:101A300061882846FFF707FFE1882846FFF7F6FE92
:101A400023893A4631462846FFF747FFE188284672
:101A5000FFF73AFFBDE8F0810A884B881A438B886C
:101A60001A43CB881A430B891A434B891A438B8933
:101A70001A43A0F8442070474FF6FF71818000217F
:101A80000180C18041800172704700210180418046
:101A90008180C180018141818181C18170470021A4
:101AA00001804180012181800021C1800181704736
:101AB0000021018041808180C1800181418181813B
:101AC00070470000002C0140003401400004004039
:101AD00000080040000C004021B1028842F00102E1
:101AE000028004E002884FF6FE731A4002807047BD
:101AF00031B1B0F8442042F40042A0F8442005E09F
:101B0000B0F84420C2F30E02A0F8442070471AB186
:101B100083890B43838102E083898B4383817047F0
:101B20008182704741EA0203A0F8483070471AB139
:101B300083890B43838102E083898B4383817047D0
:101B400001894FF6F8721140018170470A46002161
:101B500001894FF68F73194011430181704730B5E9
:101B600004460D4629462046FFF7F0FF208940F045
:101B70000700208130BD2DE9F04104460D46164690
:101B80001F46602D06D13B46012231462046FFF715
:101B90005AFE05E03B46012231462046FFF79DFEF6
:101BA00029462046FFF7D2FF208940F00700208118
:101BB000BDE8F08130B50C4600210189C9B24FF66D
:101BC000FF7505EA0325154325432943018130BDEF
:101BD0002DE9F04105460E46174698460024434637
:101BE0003A4631462846FFF7E5FF2C894FF6F87054
:101BF000044044F007044FF68F70044044F0700432
:101C00002C81BDE8F081F0B504460D4616461F460E
:101C10003B46324629462046FFF7CCFF208940F458
:101C200080402081F0BD0185828270470A460021F4
:101C300001884FF68F731940114301807047F0B54A
:101C40000C4615461E460021002200230189028B06
:101C5000038C4FF6F877394021434FF6FC473A4062
:101C600040F201173A434FF6DD773B404FF6FF77DE
:101C700007EA06172F433B43018102830384F0BD2B
:101C80000A460021018B4FF68F73194011430183DF
:101C900070470A460021018B48F6FF7319404FF642
:101CA000FF7303EA02231943018370470A460021A8
:101CB000818B4FF68F7319401143818370470A4619
:101CC0000021818B48F6FF7319404FF6FF7303EA3A
:101CD000022319438183704721B1028842F08002B8
:101CE000028004E002884FF67F731A40028070473A
:101CF00021B1828842F00402828004E082884FF69B
:101D0000FB731A408280704721B1828842F008023A
:101D1000828004E082884FF6F7731A408280704711
:101D200021B1828842F00102828004E082884FF66D
:101D3000FE731A40828070470A460021018B4FF6DD
:101D4000F77319401143018370470A460021018B44
:101D50004FF2FF7319404FF6FF7303EA0223194352
:101D6000018370470A460021818B4FF6F7731940B3
:101D70001143818370470A460021818B4FF2FF7324
:101D800019404FF6FF7303EA02231943818370471A
:101D90000A460021018B4FF6FB7319401143018362
:101DA00070470A460021018B4FF6FF3319404FF66A
:101DB000FF7303EA02231943018370470A46002197
:101DC000818B4FF6FB7319401143818370470A469C
:101DD0000021818B4FF6FF3319404FF6FF7303EA62
:101DE00002231943818370470A460021018B4FF675
:101DF0007F7319401143018370470A460021018B0C
:101E0000C1F30E014FF6FF7303EA02231943018366
:101E100070470A460021818B4FF67F7319401143AA
:101E2000818370470A460021818BC1F30E014FF672
:101E3000FF7303EA02231943818370470A46002196
:101E4000018C4FF6FD7319401143018470470A4617
:101E50000021018C4FF6F77319401143018470473C
:101E60000A460021018C4FF6DF7319404FF6FF73CD
:101E700003EA02131943018470470A460021018CCA
:101E80004FF67F7319404FF6FF7303EA02131943AD
:101E9000018470470A460021018C4FF6FF53194018
:101EA0004FF6FF7303EA02231943018470470A4681
:101EB0000021018C4FF2FF7319404FF6FF7303EAC4
:101EC00002231943018470470A460021018C4DF614
:101ED000FF7319404FF6FF7303EA0233194301847D
:101EE000704730B5002301248C40A3B2048C9C437E
:101EF0000484048C02FA01F5ADB22C43048430BD95
:101F000030B5002304248C40A3B2048C9C43048489
:101F1000048C02FA01F5ADB22C43048430BD70B5D7
:101F20000346002000241846183001258D40ACB22D
:101F30001D8CA5431D8409B1082909D100EB61005E
:101F4000056825F0700505600568154305600EE01D
:101F50000D1FC5F34E052844056825F4E0450560CE
:101F600005684FF6FF7606EA02263543056070BD28
:101F700021B1028842F00202028004E002884FF69A
:101F8000FD731A400280704721B1028842F00402BA
:101F9000028004E002884FF6FB731A40028070470B
:101FA00021B1828842F08002828004E082884FF66C
:101FB0007F731A408280704702884FF6F7731A4089
:101FC000028002880A430280704782884FF68F732E
:101FD0001A40828082880A438280704702894FF6C5
:101FE000F8731A40028102890A430281704702890C
:101FF0004FF67F731A40028102890A4302817047BB
:10200000818470478185704781867047018770475A
:1020100081877047A0F84010704702884FF6FF4351
:102020001A40028002880A43028070470146888E67
:1020300070470146088F70470146888F70470146F8
:10204000B1F8400070470146888C70470146088D02
:10205000704702460020138A0B4201D0012000E0A5
:1020600000207047CA430282704730B50246002004
:1020700000230024158A05EA0103958905EA010475
:1020800013B10CB1012000E0002030BDCA43028230
:102090007047000010B50446FB48844209D1012175
:1020A0008803FEF715FF00214FF48040FEF710FF74
:1020B00032E0F648844209D101214804FEF715FFB9
:1020C00000214FF40030FEF710FF25E0F048844275
:1020D00009D101218804FEF708FF00214FF4802078
:1020E000FEF703FF18E0EB48844209D10121C80440
:1020F000FEF7FBFE00214FF40020FEF7F6FE0BE09A
:10210000E548844208D101210805FEF7EEFE0021D2
:102110004FF48010FEF7E9FE10BD2DE9F04786B0C0
:1021200005460E460024A24600BFA1460027B089FE
:1021300000B100BF2F462C8A4CF6FF700440F08897
:1021400004432C82AC894EF6F3100440B0883189E8
:102150000843718908430443AC81AC8A4FF6FF40C1
:102160000440B0890443AC8201A8FEF72AFEC648A9
:10217000874202D1DDF810A001E0DDF80CA0A889AB
:1021800010F4004F08D00AEBCA0000EB0A103168C7
:102190004900B0FBF1F807E00AEBCA0000EB0A10B7
:1021A00031688900B0FBF1F86420B8FBF0F004015D
:1021B0002009642101FB1089A88910F4004F08D080
:1021C000322000EBC900B0FBF1F000F0070004433F
:1021D00008E0322000EB09106421B0FBF1F000F0C0
:1021E0000F0004432C8106B0BDE8F0874FF4165170
:1021F000016000218180C18001810C214181002189
:102200008181704710B502460020108A4FF2FF030B
:1022100018400B884C8823438C882343CC88234365
:102220001843108210BD0021018041808180C1804F
:10223000704721B1828942F40052828104E0828990
:102240004DF6FF731A4082817047F0B503460024B3
:10225000002600250020A1F510676A3F00D100BFCD
:102260001846C1F3421401F01F06012707FA06F5CC
:10227000012C01D10C3004E0022C01D1103000E01F
:1022800014301AB107682F43076002E00768AF43B4
:102290000760F0BD1AB1838A0B43838202E0838A10
:1022A0008B4383827047028A4FF6F0731A40028292
:1022B000028A0A430282704782894FF2FF731A40F2
:1022C000828182890A438281704721B1828942F0EA
:1022D0000202828104E082894FF6FD731A408281F6
:1022E0007047028A4FF6DF731A400282028A0A435D
:1022F0000282704721B1028A42F48042028204E0E5
:10230000028A4BF6FF731A4002827047C1F308023B
:102310008280704701468888C0F308007047818931
:1023200041F0010181817047028BD2B20283028B9E
:1023300042EA012202837047028B02F47F42028349
:10234000028B0A430283704721B1828A42F0200245
:10235000828204E0828A4FF6DF731A4082827047DD
:1023600021B1828A42F01002828204E0828A4FF612
:10237000EF731A408282704721B1828A42F00802CC
:10238000828204E0828A4FF6F7731A408282704795
:1023900021B1828942F40042828103E08289C2F342
:1023A0000E028281704721B1828A42F400628282E9
:1023B00004E0828A4FF2FF731A4082827047828A59
:1023C0004FF6FB731A408282828A0A4382827047E8
:1023D00021B1828A42F00202828204E0828A4FF6B0
:1023E000FD731A408282704702460020B1F5007FDB
:1023F00000D100BF13880B4201D0012000E0002073
:10240000704701F40072B2F5007F00D100BFCA43EB
:102410000280704770B5024600240023002500208A
:10242000A1F510666A3E00D100BFC1F3421501F06C
:102430001F03012606FA03F3012D02D196893340CA
:1024400006E0022D02D1168A334001E0968A33401D
:102450000C12012606FA04F41688344013B10CB1AC
:10246000012000E0002070BD10B500220023A1F57E
:1024700010646A3C00D100BF0A1201249440A3B248
:10248000DC43048010BD00000038014000440040DF
:1024900000480040004C00400050004010B56FF074
:1024A0000400FEF739F9374800683749B0FBF1F00E
:1024B000364908700846007800EB4001C1EBC010B7
:1024C0004FF6FF7101EAC0003149088010BD014696
:1024D0002E4A12784A434FF0E0235A6100229A6153
:1024E0001A46126942F001021A6100BF4FF0E02261
:1024F000106910F0010F02D010F4803FF6D04FF0B9
:10250000E022126922F001024FF0E0231A6100225A
:102510009A61704701461E4A12884A434FF0E023F1
:102520005A6100229A611A46126942F001021A6148
:1025300000BF4FF0E022106910F0010F02D010F43C
:10254000803FF6D04FF0E022126922F001024FF0F6
:10255000E0231A6100229A61704710B504460020FA
:102560000C49088008E04FF47A70FFF7D3FF094860
:102570000088401C0749088006480088A042F2DB1A
:1025800010BD00000000002000127A00280000208A
:102590002A0000202C00002010B54FF4A060FEF7A8
:1025A0006BF810BD014600BF704700BF494A128852
:1025B00012F0400FFAD0C2B2464B1B1D1A80704772
:1025C00010B586B00446012144F20400FEF766FC13
:1025D0004FF40070ADF8140003208DF81600182099
:1025E0008DF8170005A93C48FEF7A2F94FF480606A
:1025F000ADF8140004208DF8170005A93648FEF741
:1026000097F925208DF8000003208DF801008DF842
:10261000020001208DF803006846FEF732F80194AD
:102620000020ADF80800ADF80A00ADF80C00ADF8D8
:1026300010000C20ADF80E0001A92648FFF76DFD33
:10264000012240F225512348FFF7FFFD01212148D7
:10265000FFF7EFFD06B010BD10B540F225511D4843
:10266000FFF7D8FE10B31B48FFF754FEC4B21B4857
:10267000008810F4004F2BD11848008810F4804FC8
:102680000CD00A2C03D000201449088020E0134805
:10269000008840F400401149088019E00D2C06D153
:1026A0000E48008840F480400C49088010E00B4838
:1026B0000088C0F30D000A490C5408480088401CEB
:1026C0000649088008460088C72801DD00200880E8
:1026D00010BD00000038014000080140300000201B
:1026E000200100200EB501210846FEF7D7FB052189
:1026F0000220FEF731FA2020019000208DF808001A
:102700000C208DF8090001208DF80A0001A8FEF7C1
:102710002FF817208DF8000000208DF801008DF8AB
:10272000020001208DF803006846FDF7AAFF0EBDE8
:102730001CB50A213C2000F0F0FA8DF800000B21B6
:102740003C2000F0EAFA8DF801000C213C2000F05A
:10275000E4FA8DF802001E213C2000F0DEFA8DF82C
:1027600003009DF8031088A002F024FD1CBD10B5E5
:10277000002202213C2000F0EFFAE02201213C205F
:1027800000F0EAFA10BD3EB50446234606220321B6
:102790003C2000F0AFFAC5B26078217840EA012011
:1027A00000B27B490880E078A17840EA012000B2BD
:1027B000784908806079217940EA012000B27649A1
:1027C000088060792179E278CDE900210290A37830
:1027D0006278217871A002F0EDFC3EBD2DE9F04158
:1027E00004460025002621463C2000F096FA0546C6
:1027F000601CC1B23C2000F090FA064646EA052073
:1028000007B23846BDE8F08110B50320FFF7E6FFB8
:1028100000B25F4908800720FFF7E0FF00B25D4982
:1028200008800520FFF7DAFF00B25B49088010BD81
:102830002DE9F04F93B0FFF7E7FF62484FF06632A3
:10284000614BD0E904A1504605F010FCCDE9080128
:1028500005F09AF904460D465A484FF066325A4B35
:10286000D0E904A1504605F001FCCDE9080105F0CE
:102870004DFA06460F4653484FF06632524BD0E9A8
:1028800000A1504605F0F2FBCDE9080105F07CF906
:10289000CDE910014B49D1E900A14FF066324A4B16
:1028A000504605F0E3FBCDE9080105F02FFA80461C
:1028B00089463948B0F9000005F09BFD8246224662
:1028C0002B4605F0FDFD42464B46CDE9040105F0DF
:1028D000F7FDCDE908012F48B0F9000005F089FDAA
:1028E000824632463B4605F0EBFD42464B46CDE97B
:1028F000000105F0E5FDCDE904012548B0F900002F
:1029000005F077FD8246DDE9102305F0D9FDCDE91C
:102910000201DDE9042305F0EDFACDE90601DDE968
:10292000082305F0E7FACDE90E011B48B0F90000D5
:1029300005F05FFD824632463B4605F0C1FDCDE91C
:1029400008011448B0F9000005F053FD8246224604
:102950002B4605F0B5FDCDE90601DDE9082305F0BC
:10296000D5FFCDE90C010CA80FC805F037F8824659
:102970004FF06632144B05F0A3FDCDE90A01DDE905
:102980000A0113B0BDE8F08F2564200D0A00000095
:10299000380000203A0000203C0000202D2D2D2D75
:1029A0002D2D2D2D2D2D2D2D2D2D2D2D2564202042
:1029B00025642020256420256420202564202025EE
:1029C000640D0A001802002066A64C4010B5FC48B1
:1029D000006820F07040FA4908600846006840F03E
:1029E000405008600120F7490860F749C1F8980194
:1029F0004FF00500FFF76BFD0020F24908604FF033
:102A00000500FFF764FD0020EF49C1F8980110BDF3
:102A100010B5EB48006820F07040E94908600846AE
:102A2000006840F0405008600020E8490860E6492E
:102A3000C1F89C014FF00500FFF749FD0120E34973
:102A40000860E149C1F89C014FF00500FFF73FFD28
:102A500010BD10B50024DA48006820F07040D84955
:102A600008600846006840F0004008600120D54931
:102A700008604FF00200FFF72AFD0120D249C1F89B
:102A800098010520FFF723FD07E0601CC4B2FA2C73
:102A900003DDFFF7BDFF012010BDCD480068002811
:102AA000F3D1CA49086000BFF6E710B50020C74956
:102AB0000860C348006820F07040C14908600846BB
:102AC000006840F0405008604FF00000BE49C1F877
:102AD0009C014FF00300FFF7FAFC0120BB4908609E
:102AE0004FF00500FFF7F3FC0020B749C1F898014B
:102AF00010BD10B50020B5490860B148006820F04D
:102B00007040AF4908600846006840F040500860D7
:102B10004FF00100AC49C1F89C014FF00200FFF7F3
:102B2000D6FC0120A94908604FF00200FFF7CFFC56
:102B30000020A549C1F8980110BD70B50446A04811
:102B4000006820F070409E4908600846006840F028
:102B50004050086000209D49086005461AE0E009E1
:102B6000984908604FF00200FFF7B1FC0120964938
:102B7000C1F898010420FFF7AAFC002093490860DF
:102B80004FEA44604FEA10644FF00200FFF79FFCE9
:102B9000681CC5B2082DE2DB70BD70B50546002487
:102BA0008748006820F07040854908600846006842
:102BB00040F000400860002616E0002083490860CD
:102BC0004FF00200FFF783FC01207F49C1F8980114
:102BD0006006040E7E48006808B1601CC4B2012083
:102BE000FFF775FC701CC6B2082EE6DB15B9FFF7BF
:102BF00080FF01E0FFF759FF204670BD2DE9F0414D
:102C000006460F4690461C46FFF7E0FE002141EACB
:102C10004601C8B2FFF791FFFFF71BFF20B1FFF796
:102C2000F7FE0020BDE8F0813846FFF786FFFFF78A
:102C300010FF00250BE02078FFF77FFFFFF709FF6B
:102C400018B1FFF7E5FE0020ECE7641C6D1C45455C
:102C5000F1DBFFF7DDFE0120E4E72DE9F04104465A
:102C60000D4616461F463B46324629462046FFF78C
:102C7000C5FF10B10020BDE8F0814FF0FF30FAE74A
:102C80002DE9F04105460F4614461E46FFF79EFE0D
:102C9000002141EA4501C8B2FFF74FFFFFF7D9FE17
:102CA00020B1FFF7B5FE0020BDE8F0813846FFF700
:102CB00044FFFFF7CEFEFFF789FE012101EB45013E
:102CC000C8B2FFF73AFFFFF7C4FE0DE00120FFF79F
:102CD00064FF3070012C02D1FFF70BFF01E0FFF71A
:102CE000E4FE761C601EC4B2002CEFD1FFF790FE0C
:102CF0000120D9E72DE9F04104460D4616461F464E
:102D00003B46324629462046FFF7BAFF10B1002065
:102D1000BDE8F0814FF0FF30FAE770B504460D468C
:102D2000FFF754FE2046FFF708FFFFF792FE284604
:102D3000FFF703FFFFF78DFEFFF748FE611CC8B2E7
:102D4000FFF7FBFEFFF785FE0020FFF726FF064694
:102D5000FFF75EFE304670BD70B506460C46154660
:102D6000FFF734FE3046FFF7E8FEFFF772FE18B1BA
:102D7000FFF74EFE002070BD2046FFF7DEFEFFF796
:102D800068FE2846FFF7D9FEFFF763FEFFF740FE17
:102D90000120F0E708B501210820FEF77FF8C020E8
:102DA000ADF8000010208DF8030003208DF802001C
:102DB00069460348FDF7BCFDFFF72AFE08BD000089
:102DC000000C01409C8121420080214298812142D7
:102DD0001C81214208B501213020FEF75FF8042054
:102DE000ADF8000010208DF8030003208DF80200DC
:102DF00069462948FDF79CFD4FF4E050ADF800000E
:102E000069462648FDF794FD0120254908602549BB
:102E1000C1F8B001244908602249C1F8A80108BDE1
:102E200000201F4908604FF001001E49C1F8B001A1
:102E30001D4908601B49C1F8A801704701201849C5
:102E400008604FF000001749C1F8B0014FF00100D1
:102E5000154908601349C1F8A801704701201049BD
:102E600008601049C1F8B0014FF000000E49086039
:102E70004FF001000B49C1F8A80170470120084933
:102E800008600849C1F8B001074908604FF0000028
:102E90000449C1F8A8017047001401400010014026
:102EA0008881224200002242AC01224270B50024F7
:102EB000002500BF06E0002500E06D1CB5F57A7F17
:102EC000FBDB641CB4F57A7FF5DB00226B21D0209C
:102ED000FFF742FF07221921D020FFF73DFF06220E
:102EE0001A21D020FFF738FF18221B21D020FFF72E
:102EF00033FF00221C21D020FFF72EFF70BD10B53C
:102F000000247521D020FFF708FF044610BD2DE9ED
:102F1000F0410446002500262146D020FFF7FDFEA3
:102F20000546601CC1B2D020FFF7F7FE064646EA10
:102F3000052007B23846BDE8F0812DE9F0410020B8
:102F4000A04908703AE04320FFF7E1FF064605F08C
:102F500050FA04469C48D0E900633246204604F00B
:102F6000C9FF994A03C24520FFF7D1FF064605F085
:102F700040FA04460D469449D1E902633246294697
:102F800004F0B8FF904AC2E902014720FFF7BFFFF3
:102F9000064605F02EFA04468B48D0E90463324613
:102FA000204604F0A7FF884AC2E904010A20FFF77F
:102FB000B1FA84480078401C824908708148007842
:102FC0003228C0DB80480022804BD0E900412046F7
:102FD00005F04CF87C4A03C27B49D1E9024100224A
:102FE0007A4B204605F042F8774AC2E902011146C1
:102FF000D1E904410022754B204605F037F8724AAA
:10300000C2E90401BDE8F0812DE9F0473B20FFF75C
:103010007EFF064605F0EDF980466D48D0E9006375
:103020003246404605F072FC044605F0B3F900B2A2
:10303000684908803D20FFF76AFF064605F0D9F988
:1030400080466348D0E902633246404605F05EFCA4
:10305000044605F09FF900B25E4948803F20FFF723
:1030600056FF064605F0C5F904460D465849D1E914
:1030700004633246294605F049FC804605F08AF98A
:1030800000B2544988804320FFF741FF064605F00F
:10309000B0F904464C48D0E900633246204605F0BA
:1030A00035FC804605F076F900B24B490880452092
:1030B000FFF72DFF064605F09CF904464248D0E98B
:1030C00002633246204605F021FC804605F062F995
:1030D00000B2424908804720FFF719FF064605F075
:1030E00088F904463848D0E904633246204605F0A2
:1030F0000DFC804605F04EF900B239490880BDE864
:10310000F0872DE9F0413349B1F9000005F071F97C
:10311000044604F0BDFE334908602E49B1F90200AF
:1031200005F067F9044604F0B3FE2E4948602949CA
:10313000B1F9040005F05DF9044604F0A9FE29493F
:1031400088602548B0F9000005F053F906464FF0B5
:103150006632254B04F08AFF044604F099FE2349A9
:1031600008601E48B0F9000005F043F906464FF02C
:1031700066321D4B04F07AFF044604F089FE1B49B9
:1031800048601748B0F9000005F033F906464FF0E3
:103190006632154B04F06AFF044604F079FE1349C9
:1031A0008860BDE8F08110B51148007808B9FFF7D4
:1031B000C4FE01200E490870FFF726FFFFF7A1FFAC
:1031C00010BD00004800002000020020000049401F
:1031D000E80100204A00002050000020520000209A
:1031E0005400002030020020666630403C0200207F
:1031F0004900002000B587B001211420FDF74EFEE4
:103200001020ADF8180003208DF81A0010208DF85A
:103210001B0006A9B248FDF78BFB06A9B148FDF7D4
:1032200087FB2020ADF8180048208DF81B000320F4
:103230008DF81A0006A9AB48FDF77AFB00F039FAC1
:103240000021A948FDF75DFF0020ADF804004FF410
:103250008270ADF806000020ADF80800ADF80A0055
:10326000ADF80C004FF40070ADF80E001820ADF86A
:1032700010000020ADF812000720ADF8140001A9DD
:103280009948FDF799FE01219748FDF73AFF002084
:10329000964908604FF001009549C1F8900107B0C8
:1032A00000BD2DE9F04107460D4616460020914924
:1032B0000860384600F0D6F98046002405E0FF207B
:1032C00000F0D0F92855601CC4B2B442F7DB0120ED
:1032D000884908604046BDE8F0812DE9F041074685
:1032E0000C461546002083490860384600F0BAF9BC
:1032F0008046002605E014F8010B00F0B3F9701CBD
:10330000C6B2AE42F7DB01207A4908604046BDE80C
:10331000F0811CB578A103C9CDE90001082000F0B7
:1033200009FA052269463020FFF7D7FF05226946D2
:103330001020FFF7B6FF002406E01DF80400A528C2
:1033400000D003E0601CC4B2052CF6DB00BF052CE6
:1033500001D001201CBD0020FCE770B505460C46DD
:10336000002064490860284600F07CF906462046A3
:1033700000F078F901205E49C1F89001304670BD37
:1033800070B5044600205B490860204600F06AF9E9
:10339000FF2000F067F9054601205549C1F890016A
:1033A000284670BD70B50546102000F0C3F9002016
:1033B0004E4908604FF0200229464FF0A000FFF769
:1033C0008CFF01204E49C1F8900100BF4D480068B4
:1033D0000028FBD14FF00700FFF7D2FF044621463B
:1033E0002720FFF7BAFF14F0100F05D0FF21E120CE
:1033F000FFF7B3FF102070BD14F0200F01D0202084
:10340000F9E7FF20F7E770B504460720FFF7B8FF9C
:10341000054629462720FFF7A0FF202221466120EC
:10342000FFF73FFFFF21E220FFF797FF002070BD6D
:1034300010B500202D4908604FF0050232494FF0C9
:103440002A00FFF74AFF01212120FFF786FF012113
:103450002220FFF782FF28212520FFF77EFF202171
:103460003120FFF77AFF0F212620FFF776FF0F218B
:103470002020FFF772FF01202149C1F89001782038
:10348000FFF725F810BD10B50020184908604FF06F
:1034900005021E494FF03000FFF71FFF05221A49B1
:1034A0002A20FFF71AFF01212120FFF756FF0121F3
:1034B0002220FFF752FF1A212420FFF74EFF282178
:1034C0002520FFF74AFF0F212620FFF746FF0E2198
:1034D0002020FFF742FF01200949C1F8900110BDEB
:1034E00000080140001001400030014090012142DD
:1034F0000000224290012242A5A5A5A5A50000003A
:10350000000021421401224247940008429400081E
:1035100030B589B005460C4601210846FDF7CBFCC5
:1035200001210520FDF7BAFC0F20ADF8200018207E
:103530008DF8230003208DF8220008A94748FDF7E5
:10354000F7F9ADF81850ADF814400020ADF81A00A6
:10355000ADF8160005A94FF08040FDF761FF70201F
:10356000ADF804000120ADF806000020ADF80A0017
:103570000220ADF80C0001A94007FDF78EFF0821DD
:10358000C806FEF7D9FB7020ADF804000120ADF8A5
:1035900006000020ADF80A000220ADF80C0001A9D9
:1035A0004007FDF7BCFF0821C806FEF7CEFB7020E0
:1035B000ADF804000120ADF806000020ADF80A00C7
:1035C0000220ADF80C0001A94007FDF7F5FF082126
:1035D000C806FEF7C7FB7020ADF804000120ADF867
:1035E00006000020ADF80A000220ADF80C0001A989
:1035F0004007FEF72CF80821C806FEF7BCFB0121A6
:103600008807FEF769FB01218807FEF765FA09B014
:1036100030BD10B500214FF08040FEF7FBFC0021CB
:103620004FF08040FEF7F2FC00214FF08040FEF7A3
:10363000EBFC00214FF08040FEF7EAFC10BD08498A
:10364000088070474FF08041088770474FF08041F5
:10365000888670474FF08041888770470008014096
:103660004000004070B50546002405E0601CC4B26F
:10367000C82C01DD002070BD02213748FDF7C5FDD3
:103680000028F3D029463448FDF76CFD002405E0FE
:10369000601CC4B2C82C01DD0020ECE701212E48DB
:1036A000FDF7B3FD0028F3D02B48FDF75DFDC0B258
:1036B000E1E700B587B0012141F20400FDF7EEFB20
:1036C000E020ADF8180018208DF81B0003208DF8BD
:1036D0001A0006A92148FDF72BF9E0211F48FDF744
:1036E000D2F90020ADF804004FF48270ADF8060066
:1036F0000020ADF808000220ADF80A000120ADF866
:103700000C004002ADF80E003820ADF8100000208B
:10371000ADF812000720ADF8140001A90E48FDF71E
:103720004BFC01210C48FDF7ECFCFF20FFF79AFF52
:1037300007B000BD10B50446074800884FF6C771B2
:103740000840054908800846008820430880012178
:103750000148FDF7D6FC10BD0030014000080140D3
:103760007FB505460C4601210220FDF7A4FBADF80C
:103770000850ADF804400020ADF80A00ADF806008E
:1037800001A93648FDF74CFE002201213348FEF71F
:10379000BEF91D208DF8000001208DF801000320E6
:1037A0008DF8020001208DF803006846FCF769FFE0
:1037B00001212A48FEF790F97FBD70B50024274803
:1037C00024300088264908600020244924310880DC
:1037D0002348006805F068FB0546224905F0ACFB6C
:1037E0000446204670BD10B501211C48FEF73DFC83
:1037F00030B11DA001F0DEFC01211848FEF746FCA7
:1038000010BD7FB505460C4601210420FDF753FB92
:10381000ADF80850ADF804400020ADF80A00ADF84E
:10382000060001A91348FDF7FBFD012211461148CE
:10383000FEF76DF91E208DF8000000208DF80100C4
:1038400002208DF8020001208DF803006846FCF785
:1038500018FF01210748FEF73FF97FBD0004004033
:1038600058000020BD3786353320D6D0B6CF0D0A9C
:1038700000000000000800402DE9F0478246144691
:103880001D46DDE90867504604F0B3FD8046224638
:103890002B4604F0D9FD07D82046294604F07AFDCE
:1038A00082465046BDE8F087504604F0A2FD8046AF
:1038B00032463B4604F002FF06D23046394604F059
:1038C00069FD82465046EDE75046EBE710B500240F
:1038D000F1480078002837D0F0480078012833D12B
:1038E000EF48FFF790FDF0B900BF09E0EC48005D3C
:1038F000FF2800D006E00020EA490870601CC4B22E
:10390000092CF3DB00BF092C09DB0120E549087015
:103910000020E14908700120E34908700024FF21DC
:10392000E220FFF71AFD0020DC490870DF4800683C
:1039300040F02000DD490860DD48006808B901203A
:1039400000E00020DA49086010BD2DE9F04FC7B053
:103950004FF0000900240026002522E0D048005D39
:10396000202809D0CE48005D06EB86010AAA02EBAA
:10397000C10148556D1C641C0EE0641CC848005D04
:10398000202809D0002006EB86010AAA02EBC1011B
:103990004855761C002503E0C148005D2028ECD086
:1039A00000BFBF48005D0028D8D10AA804F0D6F8AF
:1039B000074604F0EFFCBF49086014A804F0CEF8F5
:1039C000074604F065FABC4908601EA804F0C6F872
:1039D000074604F05DFAB949086028A804F0BEF86B
:1039E000074604F055FAB649086032A804F0B6F864
:1039F000074604F04DFAB34908600846006805F030
:103A00006FF807468846AE48006805F069F88246B8
:103A10008B46AA48006805F063F8CDE90801A6487E
:103A2000006805F05DF8CDE902ABCDE90478CDE999
:103A30000601DDE90801CDE900019E48DDE9062324
:103A40000168A1A001F0B6FB4FF000090DE00025D0
:103A500007E0002009EB89010AAA02EBC1014855E1
:103A60006D1C142DF5DB09F10109701C8145EEDB9D
:103A70004FF0000900240026002547B0BDE8F08F74
:103A80007CB500268748007800287DD083480078E0
:103A9000012879D18248FFF7B6FC20B900BFFF2189
:103AA000E220FFF75AFC7E480078FF286DD17C4861
:103AB0004078FF28FAD17C48007838B10020894945
:103AC00088804880088078490870B3E0744800799D
:103AD000000200B2724949790843824988807048DF
:103AE0008079000200B26E49C97908437D49488057
:103AF0006B48007A000200B26949497A0843794963
:103B000008800846B0F9040040F6B831884204DD68
:103B1000684800686430674908607248B0F904007A
:103B2000B0F57A7F04DA6348006864386149086058
:103B300000216D480A460B46CDE900105D4800683B
:103B4000FFF79AFE5B4908606648B0F90000A0F5EF
:103B5000006119390ED06349B1F90010A1F61900BE
:103B600004F047FC21F00041044600225F4B04F0C2
:103B7000A5FD18D25B48B0F90000A0F619004FF47B
:103B8000967190FBF1F401E078E058E0204605F0F2
:103B900073F9574908600846006804F0A1FF554AC8
:103BA000C2E9040102E00020514908604D48B0F923
:103BB0000200A0F5006144390ED04A49B1F9021063
:103BC000A1F6440004F015FC21F000410446002257
:103BD000464B04F073FD15D24248B0F9020040F69E
:103BE0004401081A4FF4967190FBF1F4204605F059
:103BF00043F9414908600846006804F071FF3D4AF6
:103C000003C202E000203C490860002023490870FC
:103C100001213A48FDF760FF2448006840F0200089
:103C2000224908602248006808B9012000E000200D
:103C30001F4908604FF000012E4A9160D16018487A
:103C40000078FF281AD016484078FF2816D0FFF7D2
:103C50007CFE00201149087001212848FDF73CFF37
:103C60001248006840F020001049086010480068C1
:103C700008B9012000E000200D4908607CBD10B5A6
:103C80000548007808B1FFF721FE0648007808B122
:103C9000FFF7F6FE10BD00005D0000205C00002074
:103CA000600200205E0000205F0000200004014050
:103CB000AC012242700000208C0000209000002007
:103CC0009400002098000020256420252E326620D4
:103CD000252E326620252E326620252E32660D0ACC
:103CE000000000007E02002000388F4000003440B9
:103CF00068000020980200206400002000080040B6
:103D00002DE9F04104460D46164664426D424B498A
:103D100009682144491B881905F0AEF84849086034
:103D20004649096821442944881B05F0A5F84549FE
:103D3000086042490968091B2944881905F09CF864
:103D4000414908603D490968091B491B881B05F06A
:103D500093F83E49086000213948006805F0B8F83A
:103D600002D800203649086039493548006805F016
:103D7000AFF902D83648324908600021314800685E
:103D800005F0A6F802D800202E49086030492D48D9
:103D9000006805F09DF902D82D482A4908600021E5
:103DA0002948006805F094F802D8002026490860E8
:103DB00027492548006805F08BF902D82448224994
:103DC000086000212148006805F082F802D8002030
:103DD0001E4908601E491D48006805F079F902D89F
:103DE0001B481A4908601948006805F025F887B291
:103DF00039464FF08040FEF70DF91148006805F094
:103E00001BF887B239464FF08040FEF7FFF80D48A7
:103E1000006805F011F887B239464FF08040FEF790
:103E2000F3F80948006805F007F887B239464FF003
:103E30008040FEF7EDF8BDE8F08100007000002042
:103E400074000020780000207C000020800000200A
:103E500000C0794403468B4201DA0846704793421A
:103E600001DD1046FAE71846F8E72DE9F04104466F
:103E70000D46164600BF24F00040C0F1FF40C00FC1
:103E800050B13146284604F057FE07464FF07C51AA
:103E900005F052F8BDE8F0812946204605F018F8F3
:103EA00001D22846F6E73146204605F011F901D245
:103EB0003046EFE72046EDE700207C490860704778
:103EC00070B50446204604F0D7FF064678480168DE
:103ED000304605F031F8054604F092FF70BD70B52C
:103EE0000446204604F0C8FF064672480168304682
:103EF00005F022F8054604F083FF70BD2DE9F0417E
:103F000004460D46204604F0B7FF80466A48016823
:103F1000404605F011F80746294605F00DF806461B
:103F200062480168304604F007FE60490860634A51
:103F300063495E480068FFF798FF5C4908600846DF
:103F4000006804F05DFFBDE8F0812DE9F041044612
:103F50000D465C490968601A04F08EFF0746294641
:103F600004F058FE0646574804603146564800683B
:103F700004F0E2FF074604F043FFBDE8F08170B5AE
:103F800004460D462046FFF7AAFF0646294620466E
:103F9000FFF7B4FF064429462046FFF7D6FF30441A
:103FA00070BD2DE9FF5F494800224FF08043D0E902
:103FB0000461304604F084FA804604F0EBF983464D
:103FC0001E225142FFF746FF824604F012FA0446D1
:103FD0003F48D0E904633246204604F097FCCDE91F
:103FE000000104F0D7F902903849D1E900610022BC
:103FF0004FF08043304604F063FA044604F0CAF9F7
:1040000083461E225142FFF725FF824604F0F1F954
:1040100080462F48D0E900432246404604F076FC13
:10402000CDE9000104F0B6F903900298FFF748FFCC
:10403000064604F021FF054626480168284605F09B
:104040000BF9044604F0DCFE2349086000204860B8
:10405000BDE8FF9F3EB5002400BF10E01F48006888
:104060000A38002801DCFFF727FF1B4951F824001C
:104070001B49FFF784FF4DF82400601CC4B2032CD9
:10408000ECDB002002901748007820B19DE8070083
:10409000FFF736FE02E00020FFF7BBFA3EBD10B589
:1040A000FFF77FFFFFF7D6FF10BD0000A000002044
:1040B0008C000020900000209400002000007A4432
:1040C00000007AC49C000020980000209802002084
:1040D000180200203C020020B002002070000020E6
:1040E0000AD7A33B840000202DE9F04704464FF097
:1040F0007C51204604F020FF814625462E46FE488E
:10410000A0EB660635462946484604F015FF824670
:10411000294604F011FF80464FF07F5105F009F861
:104120000746294604F008FF05462846BDE8F08703
:104130000FB400B5ABB0F1480168006804F0FCFEB4
:104140001190EF480168ED48006804F0F5FE10900A
:10415000EC480168E948006804F0EEFE0F90EA4878
:104160000168E648006804F0E7FE0E90E448016844
:10417000006804F0E1FE0D90E2480168E048006844
:1041800004F0DAFE0C90E0480168DD48006804F0B5
:10419000D3FE0B90DB480168006804F0CDFE0A9066
:1041A000D9480168D748006804F0C6FE0990D6488F
:1041B0000168006804F0C0FE08902C9818902D98B3
:1041C00017902E9816902F98039004F089FCCF4AF0
:1041D000CF4BCDE9040104F073F9CDE9060103F0FA
:1041E00057FE1B903098039004F07AFCC74AC84BE6
:1041F000CDE9040104F064F9CDE9060103F048FEBD
:104200001A903198039004F06BFCC04AC04BCDE982
:10421000040104F055F9CDE9060103F039FE1990C7
:104220001699084604F088FE06901799084604F08F
:1042300083FE04901899084604F07EFE03900499CA
:1042400004F07AFC0590069904F076FC0790FFF7DD
:104250004BFF2A902A99189804F06EFE18902A991C
:10426000179804F069FE17902A99169804F064FED6
:1042700016903499084604F05FFE0690339908467C
:1042800004F05AFE04903299084604F055FE03905B
:10429000049904F051FC0590069904F04DFC079038
:1042A000FFF722FF2A902A99329804F045FE3290B7
:1042B0002A99339804F040FE33902A99349804F0F8
:1042C0003BFE34900F990B9804F036FC05904FF0AC
:1042D0008040349904F030FE0490059904F02CFEDF
:1042E00007900E990C9804F0B7FF03904FF08040B0
:1042F000339904F021FE0290039904F01DFE05900D
:104300004FF07C500A9904F0A7FF0190089904F03F
:10431000A3FF03904FF08040329904F00DFE02900D
:10432000039904F009FE0490059904F005FC069039
:10433000079904F001FC29901099099804F08CFF6A
:1043400005904FF08040349904F0F6FD04900599F3
:1043500004F0F2FD07904FF07C500D9904F07CFFC3
:104360000190089904F078FF03904FF08040339952
:1043700004F0E2FD0290039904F0DEFD05900E9931
:104380000C9804F0D9FB03904FF08040329904F070
:10439000D3FD0290039904F0CFFD0490059904F039
:1043A000CBFB0690079904F0C7FB28904FF07C5098
:1043B0000D9904F051FF03900A9904F04DFF059008
:1043C0004FF08040349904F0B7FD0490059904F053
:1043D000B3FD07901099099804F0AEFB03904FF0DD
:1043E0008040339904F0A8FD0290039904F0A4FDE5
:1043F00005900F990B9804F02FFF03904FF0804029
:10440000329904F099FD0290039904F095FD04900F
:10441000059904F091FB0690079904F08DFB279015
:104420002899084604F088FD06902999084604F06A
:1044300083FD0590069904F07FFB079003F0E5FCEF
:104440002690279825900F990B9804F005FF4FF0C0
:104450008041079004F070FD24900999109804F0B1
:104460006BFB4FF08041079004F066FD23900D999F
:10447000119804F0F1FE06900A9904F0EDFE079001
:10448000089904F059FB22900F990B9804F0E4FE70
:1044900005904FF08040259904F04EFD0490059959
:1044A00004F04AFD07904FF07C500A9904F0D4FEC6
:1044B0000390089904F0D0FE05904FF080402699B3
:1044C00004F03AFD0490059904F036FD0690079932
:1044D00004F032FB21900999109804F02DFB05900F
:1044E0004FF08040259904F027FD0490059904F0D1
:1044F00023FD07900E990DE0DF59375FA8000020DB
:10450000AC000020B0000020B40000205DA7919610
:10451000CADB913F0C9804F09FFE05904FF080405D
:10452000269904F009FD0490059904F005FD069014
:10453000079904F001FB20904FF07C500D9904F096
:104540008BFE03900A9904F087FE05904FF080409F
:10455000259904F0F1FC0490059904F0EDFC079016
:104560000B990F9804F0E8FA05904FF080402699D7
:1045700004F0E2FC0490059904F0DEFC0690079933
:1045800004F0DAFA1F902099349804F0D5FC0590D5
:104590001F99339804F0D0FC0490059904F05CFE58
:1045A00007902399169804F0C7FC05902299179854
:1045B00004F0C2FC0490059904F04EFE06900799A1
:1045C00004F0BAFA1E901F99329804F0B5FC0590D9
:1045D0002199349804F0B0FC0490059904F03CFE55
:1045E00007902299189804F0A7FC05902499169832
:1045F00004F0A2FC0490059904F02EFE06900799A1
:1046000004F09AFA1D902199339804F095FC0590D6
:104610002099329804F090FC0490059904F01CFE57
:1046200007902499179804F087FC0590239918980F
:1046300004F082FC0490059904F00EFE06900799A0
:1046400004F07AFA1C90FFF7B8F8FE4908600846B3
:10465000006804F045FA0022FB4BCDE9040103F0A9
:104660002FFFCDE9060103F013FCF8490860002193
:104670001E9804F091FB6FD000211D9804F08CFB74
:104680006AD000211C9804F087FB65D0F0491E9881
:1046900004F052FC0690ED480168069804F04CFCCA
:1046A0000790EC480168079804F046FAE949086069
:1046B000E7491D9804F040FC0690E448016806981C
:1046C00004F03AFC0790E4480168079804F034FAD3
:1046D000E1490860DE491C9804F02EFC0690DB4896
:1046E0000168069804F028FC0790DC4801680798E8
:1046F00004F022FAD94908604FF080401E9904F076
:104700001BFC0690D3480168069804F015FA079040
:104710001B9904F011FA1B904FF080401D9904F092
:104720000BFC0690CC480168069804F005FA079047
:104730001A9904F001FA1A904FF080401C9904F085
:10474000FBFB0690C5480168069804F0F5F9079050
:10475000199904F0F1F91990C1481999006804F009
:10476000EBFB0590BF481A99006804F0E5FB039045
:10477000BD48006880F0004001901B9904F0DCFB0C
:104780000290039904F068FD0490059904F064FD1B
:104790000690AE480168069804F0CEFB0790B34837
:1047A0000168079804F0C8F91590AD481A99006897
:1047B00004F0C2FB0590AB481999006804F0BCFBFB
:1047C0000390AA481B99006804F0B6FB0290039975
:1047D00004F0B2F90490059904F03EFD06909B4860
:1047E0000168069804F0A8FB07909F4801680798A5
:1047F00004F0A2F914909A481B99006804F09CFBFD
:10480000059099481999006804F096FB0390974821
:104810001A99006804F090FB0290039904F01CFDC3
:104820000490059904F088F9069088480168069874
:1048300004F082FB07908B480168079804F07CF92C
:10484000139088481B99006804F076FB0590864811
:104850001A99006804F070FB039084481999006865
:1048600004F06AFB0290039904F066F9049005993C
:1048700004F0F2FC069075480168069804F05CFBB1
:10488000079077480168079804F056F9129012993A
:10489000084604F051FB06901399084604F04CFBBF
:1048A00004901499084604F047FB029015990846B5
:1048B00004F042FB0190029904F03EF90390049940
:1048C00004F03AF90590069904F036F90790FFF7DD
:1048D0000BFC2A902A99159804F02EFB6349086076
:1048E0002A99149804F028FB5F4908602A991398C4
:1048F00004F022FB5B4908602A99129804F01CFB23
:10490000574908602BB05DF814FB0FB42DE9F04F48
:104910008DB0DDF858B017980C9018980B90199836
:1049200004F0DEF8524A534BCDE9040103F0C8FD10
:10493000CDE9060103F0ACFA0A901A9804F0D0F819
:104940004B4A4C4BCDE9040103F0BAFDCDE9060119
:1049500003F09EFA09901B9804F0C2F8444A454BB4
:10496000CDE9040103F0ACFDCDE9060103F090FAB6
:1049700008900B99084604F0DFFA06900C99084657
:1049800004F0DAFA59460490584604F0D5FA039038
:10499000049904F0D1F80590069904F0CDF8079039
:1049A000FFF7A2FB07460021384604F0F5F902D1D3
:1049B00031A000F0FFFB3946584604F0BDFA8346AB
:1049C00039460C9804F0B8FA0C9039460B9804F06C
:1049D000B3FA0B90234801682448006804F0ACFA4D
:1049E00006901F4801682048006804F0A5FA059069
:1049F000069904F031FC4FF08041079004F09CFAD6
:104A00008046174801681748006804F095FA069038
:104A1000154801681548006804F08EFA059006995B
:104A200004F08AF84FF08041079004F085FA81463F
:104A30000B480168006804F07FFA07900948016894
:104A400000681FE0140100200000E03FE8000020A3
:104A50000AD7A33BB8000020BC000020C000002003
:104A6000B4000020B0000020AC000020A80000200E
:104A70005DA79196CADB913F204552524F522020AC
:104A80000000000004F058FA0590FE480168006834
:104A900004F052FA0390FC480168006804F04CFAF4
:104AA0000290039904F0D8FB0490059904F0D4FB1C
:104AB0000690079904F040F8824649460B9804F0A6
:104AC0003BFA514607900C9804F036FA0690079985
:104AD00004F0C2FB04465146584604F02DFA414604
:104AE00007900B9804F028FA0690079904F0B4FB9D
:104AF000054641460C9804F01FFA4946079058466F
:104B000004F01AFA0690079904F0A6FB0646DF495E
:104B1000204604F011FA0790DD480168079804F078
:104B20000BF8DB490860D949284604F005FA0790DC
:104B3000D8480168079803F0FFFFD6490860D349B9
:104B4000304604F0F9F90790D3480168079803F05C
:104B5000F3FFD149086021464FF0804004F0ECF9A2
:104B600006900A9903F0E8FF0790C9480168079882
:104B700003F0E2FF0A9029464FF0804004F0DCF990
:104B80000690099903F0D8FF0790C248016807987A
:104B900003F0D2FF099031464FF0804004F0CCF989
:104BA0000690089903F0C8FF0790BB480168079872
:104BB00003F0C2FF0890FEF700FEB84908600846FF
:104BC000006803F08DFF0022B54BCDE9040103F02E
:104BD00077FCCDE9060103F05BF9B2490860B24801
:104BE0000899006804F0A8F90590B0480999006890
:104BF00004F0A2F90390A348006880F000400190FF
:104C00000A9904F099F90290039904F025FB0490A5
:104C1000059904F021FB0690A2480168069804F06B
:104C20008BF9079098480168079803F085FF96492B
:104C300008609D480999006804F07EF905909B483A
:104C40000899006804F078F903908F480A99006881
:104C500004F072F90290039903F06EFF0490059935
:104C600004F0FAFA06908F480168069804F064F997
:104C7000079084480168079803F05EFF8149086047
:104C800089480A99006804F057F905907D48089909
:104C9000006804F051F903907B480999006804F01A
:104CA0004BF90290039904F0D7FA0490059903F0A8
:104CB00043FF06907B480168069804F03DF9079091
:104CC0007A480168079803F037FF78490860774809
:104CD0000A99006804F030F905906A48099900685B
:104CE00004F02AF9039068480899006804F024F950
:104CF0000290039903F020FF0490059904F0ACFAA8
:104D0000069068480168069804F016F9079066480E
:104D10000168079803F010FF6349086008460168BE
:104D2000006804F009F9069060480168006804F022
:104D300003F9049053480168006804F0FDF80290FC
:104D400051480168006804F0F7F80190029903F0F7
:104D5000F3FE0390049903F0EFFE0590069903F02B
:104D6000EBFE0790FFF7C0F9074639464648006852
:104D700004F0E2F84449086039464248006804F00B
:104D8000DBF84049086039464848006804F0D4F828
:104D90004649086039464448006804F0CDF8424965
:104DA00008600DB0BDE8F00F5DF814FB2DE9F04F81
:104DB00085B082463C480168006804F0BDF80646AC
:104DC0003A480168006804F0B7F807462D480168C2
:104DD000006804F0B1F880462B480168006804F0D0
:104DE000ABF88146414603F0A7FE0546394604F07C
:104DF00033FA0446314604F02FFA04902A48016839
:104E00002148006804F098F88146284801681D4848
:104E1000006804F091F84946009003F08DFE80464A
:104E200003F05EFE064600224FF0804303F048FB8D
:104E3000044603F02DF803901C48016812480068EE
:104E400004F07AF88146184801680E48006804F0BA
:104E500073F84946009004F0FFF9804603F040FEE5
:104E6000064600224FF0804303F02AFB044603F07D
:104E70000FF88346034801680348006804F05CF8B3
:104E8000009015E0AC000020A80000200AD7A33B4A
:104E9000B8000020BC000020C00000201401002049
:104EA0000000E03FE8000020B4000020B000002037
:104EB000A8480168A848006804F03EF881460099B7
:104EC00003F03AFE804603F00BFE064600224FF048
:104ED000804303F0F5FA044602F0DAFF02909D48A1
:104EE0000168006804F028F806469B4801680068DD
:104EF00004F022F8074699480168006804F01CF89D
:104F0000804697480168006804F016F881464146DB
:104F100004F0A2F90546394604F09EF904463146EC
:104F200003F00AFE0190019803F0DAFD06460F46F1
:104F3000029803F0D5FD804632463B4602F04EFD16
:104F400004464FF06632874B03F0BAFACAE904010F
:104F5000584603F0C5FD064602F0F0FA81F0004124
:104F600004464FF066327F4B03F0AAFACAE900010B
:104F7000FDF75EFCCAE9020105B0BDE8F08F7FB520
:104F80007948006808B9012000E0002076490860EF
:104F90004FF00000754908601FE07348006808B9C9
:104FA000012000E0002070490860FEF7FCF870491D
:104FB000D1E90101CDE900016D4803686D4807C8DA
:104FC000FFF7A3FC6C48FFF7F1FE0A20FDF7A2FAF9
:104FD00066480068401C65490860644800686428A9
:104FE000DBDB00206149086048E00A20FDF792FA07
:104FF000FEF7D9F85E49D1E90101CDE900015C482D
:1050000003685C4807C8FFF780FC5B48FFF7CEFEEB
:105010005948D0E904432246584903C902F06AFFBF
:10502000564A03C25448D0E900432246544903C9B2
:1050300002F060FF524A03C24F49D1E902432246BF
:10504000504903C902F056FF4E4A03C20A20FDF739
:1050500061FA4949D1E90201CDE90201464903C992
:10506000CDE900014449D1E90443224646A000F0BD
:10507000A1F83E480068401C3C4908603B48006875
:105080006428B2DB0022484B3C4903C902F0EEFF22
:10509000464AC2E904010022434B394903C902F0E0
:1050A000E5FF424A03C200223F4B364903C902F0E2
:1050B000DDFF3E4AC2E902010020304A1060506024
:1050C00000212F4A116051602E4A1060506026481E
:1050D000006808B9012000E00020234908607FBD76
:1050E0002DE9FC41FEF75FF82149D1E90101CDE945
:1050F00000011F4803681F4807C8FFF706FC1E4849
:10510000FFF754FE2948D0E904431B482246D0E962
:105110000461304603F0FAFB174AC2E90401234850
:105120001146D0E90043D1E900612246304603F040
:10513000EDFB114A03C21D48D0E902430E48224646
:10514000D0E90261304603F0E1FB0B4AC2E90201FB
:10515000BDE8FC81B4000020B0000020AC000020BD
:10516000A800002066A64C40A8012242C8000020EA
:105170003C0200203002002018020020D000002055
:10518000D8000020E0000020686568652D2D2D20E6
:10519000252E326C662020252E326C662020252E8E
:1051A000326C660D0A0000000000594048020020E1
:1051B000704700000FB4044910B503AA029800F02C
:1051C0006DFB10BC5DF814FB340000202DE9F041AC
:1051D0000646002410687529314616A511D0AFF394
:1051E0000080002803DAC0F1000013A507E0316851
:1051F0008A0701D511A502E0490704D510A50124AD
:1052000001E0AFF3008000210A2306F1240707E044
:10521000B0FBF3F203FB1200303078541046491C07
:105220000028F5D123462A463046BDE8F04100F07B
:10523000C8B80000000000002D0000002B00000096
:10524000200000002DE9F0474FF0000A894604468F
:10525000C0F820A02046E1688847002876D025289D
:1052600006D0D4E901219047206A401C2062F1E772
:10527000E168204600268847C4F81CA005460027A0
:10528000C4F818A02A2D09D0284602F050F938B3E6
:1052900004EB8708303DC8F8185019E059F8041B92
:1052A000204604EB87029161E1688847012F05469B
:1052B00018D1E069002820DA26F020061DE0D8F891
:1052C000180000EB800005EB40003038C8F81800EB
:1052D0002046E1688847054602F029F90028EED10A
:1052E000012F0AD02E2D08D12046E16888477F1C67
:1052F0000546022F46F02006C4DBA069002803DA29
:10530000404246F00106A061F00701D026F01006E9
:105310006C2D0AD0682D08D04C2D39D06A2D35D08F
:10532000742D35D07A2D33D016E0E1682F46204613
:105330008847B84205460AD16C2F27D04FF48060C9
:10534000E168064320468847054605E027E06C2FC4
:105350001AD04FF4807006430DB3A5F1410019280F
:1053600002D8203546F400664A4629462046266083
:105370004E46FAF717FF80B101280BD0F61D26F034
:10538000070000F1080965E74020E4E78020D7E73F
:105390000020D5E706F104095CE7284661E7206AAA
:1053A000BDE8F087704770477047704710B500F050
:1053B000DBFA006810BD10B5044600F0D5FA0460B1
:1053C00010BD2DE9F0470D4699469246044600F17E
:1053D00024080168880604D5E06921F010012160E5
:1053E00000E00120A84202DDA0EB050700E0002755
:1053F000A16907EB050202EB0900A1EB0000A06127
:105400002078C00602D42046AFF30080002608E0D2
:10541000D4E901211AF806009047206A401C761C46
:1054200020624E45F4DB2078C0060AD52046AFF353
:10543000008006E0D4E9012130209047206A401C1A
:105440002062381EA7F10107F4DC07E0D4E901214E
:1054500018F805009047206A401C2062281EA5F11C
:105460000105F3DC2046AFF300802078000602D56A
:105470000220BDE8F0870120FBE770472DE9FF4FD0
:105480000C461E464FF0FF378BB0D2E90001DDF825
:1054900060800A908A46C1F30A5505B93D4600214D
:1054A00008464FF00000BAF1000F00F4400005DAA2
:1054B00000EB80004FF4400101EA50004FEA9059A0
:1054C000B9F1010F00DDB9460A9850EA4A000ED042
:1054D00044F61050A5F2FF3545432F14B8F1000FE4
:1054E0001ED07542291E1EDDC9F100021CE0B8F174
:1054F000010F4FF0000001D0302103E0F24305E03E
:105500002154401CB042FBDB3046002200212154D4
:105510000B99C1F80880C1E900200FB0BDE8F08FF9
:10552000BD1B6D1CDEE74A4600DA694206A800F0A2
:10553000E5FA06AB07CB03AB07C350460A9901F067
:1055400066F88DE80700A0F500501F38009003981A
:10555000002D09DD42F21F014A46084403A90390C9
:10556000684601F0F0FA08E0A0F500504A461F38FE
:1055700003A90390684601F00EFB8DE807000004C4
:10558000000C03D04FF0FF30410800E01046B8F1A6
:10559000000F03D00022009215461FE0751E06D4AE
:1055A00000F0E6F902F1300262556D1EF8D5B346FF
:1055B0000122084302D000227F1C04E0207830281A
:1055C00001D100227F1E002A099787D01DE0112DEE
:1055D00007DA00F0CDF9303262556D1C50EA010255
:1055E000F5D108430FD10021681E05E0235C625C01
:1055F0006354491C2254401E8142F7DBAB46A81B72
:10560000401E099001E0009848B1002004F80B000A
:105610000B98099AC0F80880C0E9002B7DE7112695
:105620004FF000085AE72DE9F04F88460446D21D96
:1056300022F0070191B0D1E90001CDE90A0101F0A2
:10564000F4FB02460B98C00F01D02D2007E0206824
:10565000810701D52B2002E0202101EAC000032AA6
:10566000099001D0072A05DB03464146204600F099
:10567000E5F90FE12078800601D5E06900E0062019
:10568000B8F1650F814606D0B8F1660F18D0B8F1B1
:10569000670F72D132E00020B9F1110F009001DBE9
:1056A000112301E009F101030AAA01A90CA8FFF7DF
:1056B000E5FEDDE90C70002609F10105834648E0AE
:1056C00001204B4600904FF000470AAA01A90CA800
:1056D000FFF7D4FEDDE90DB00C995D46002618B940
:1056E00009F1010001EB0005B9EB050003D4C0F19D
:1056F000FF3609F10105A5EB09002BE0B9F1010F17
:1057000001DA4FF001090020B9F1110F009048466D
:1057100001DD112300E003460AAA01A90CA8FFF746
:10572000ADFEDDE90C704D4600268346207800076B
:105730000AD4AB4500DA5D4601A8012D04DD41190C
:1057400011F8011C302907D04F4502DA17F1040F78
:1057500004DA0120824610E06D1EEEE7002F02DC25
:10576000ED1B3E4403E0781CA84200DD0546A7EB94
:10577000060000F1010A4FF000472078000703D42B
:10578000AA4501DB4FF0FF3A0021B7F1004F0DF1C0
:1057900043088DF8431023D002202B23002F01DA79
:1057A0007F422D234FF00A0C011EA0F1010000DC06
:1057B0004FB197FBFCF10CFB11720F4602F1300266
:1057C00008F8012DF0E7A8F1010003702188090510
:1057D00001D5452100E06521A0F1010800F8011C78
:1057E00009980FA9A1EB080707F1070700B10120ED
:1057F00000EB050101EBEA70A1693844A1EB000060
:10580000A0F10100A0612078C00602D42046AFF3C9
:105810000080099830B1D4E901219047206A00F155
:10582000010020622078C00620D52046AFF300801A
:105830001CE0002E04DBB34502DD01A8805D00E022
:105840003020D4E901219047206A761C401CBAF12F
:10585000010A20620AD100F083F8C0680168405C48
:10586000D4E901219047206A401C2062281EA5F13E
:105870000105DEDC07E0D4E9012118F8010B9047AF
:10588000206A401C2062381EA7F10107F3DC204685
:10589000AFF30080022011B040E60000074B70B566
:1058A0000D467B4400F0B7F80446284600F098F90E
:1058B00010B14FF0FF3070BD204670BD05CDFFFF29
:1058C0000FB4002300B589B00CA900910B99CB60EF
:1058D000204B7B440693204B7B44079304236FF0BB
:1058E0000042CDE901321D4A7A446B4608920246D5
:1058F000002003F088FD09B05DF814FB70B5064682
:105900004FF0FF3015460C46324686B00091CDE987
:10591000010169460020049004A8FFF7D1FF034667
:105920000498211825B108B10A4600E022462A60F1
:1059300000280DD0002B02DD0098884208D03246A6
:10594000081B69460094CDE9010404A8FFF7B8FFDD
:1059500006B070BDE7010000FF0100000F0100006C
:1059600000487047DC02002000487047BC0200205D
:1059700030B5B0F10A024FEA900E71F100034EEA21
:10598000817EB0EB0E0061EB91014FEA101E4EEAF2
:10599000017E10EB0E0041EB11114FEA102E4EEA82
:1059A000016E10EB0E0041EB11214FEA104E4EEA52
:1059B000014E10EB0E0041EB1141401841F1000186
:1059C0004FEAD00040EA41704FEAD10110EB800568
:1059D0004FEA810444EA907444EB01046D1944EBEE
:1059E0000404521BA3414FF0000348BF0A3200D504
:1059F00030BD401C41F1000130BD10B5044600F03F
:105A00001DF90068005D00F0010010BD01694A1C2D
:105A100002610878704700B58FB0CDE901310021EF
:105A2000059105497944CDE9031011466846FFF711
:105A300009FC0FB000BD0000E5FFFFFF2DE9F041BC
:105A40001F46044603260168072A01F4006004DBB0
:105A500008B116A505E016A503E008B115A500E0FC
:105A600015A521F010002060A069C01EA0610FB133
:105A7000401EA0612046AFF300804FB1D4E9012160
:105A800038469047206A401C2062C01C206206E015
:105A9000206AFAE7D4E9012115F8010B9047761E38
:105AA000F8D22046AFF30080BDE8F0814E414E00B1
:105AB0006E616E00494E4600696E6600426842B1F2
:105AC000016811F8013B23B1521EC0E900121846CB
:105AD00070470121C160881E704742685AB1C3688F
